:02000000222BB1
:100006008316031398180928000003288312590839
:040016009900080045
:10001A00333083120313FD00FD0B1128000000008A
:02002A000800CC
:10002C0083120313D801560884000008D700570820
:10003C00003A03192B285708D9000320D80A58086E
:0C004C00560784000008D7001D2808009B
:10005800710DF80DF90D7408F8027508031C750F79
:10006800F902F00DF10D0F30FC00710DF80DF90DCE
:100078007408701C4528F8027508031C750FF902EE
:100088004A28F80775080318750FF907F00DF10DE0
:10009800FC0B3928701856287408F80775080318D7
:0800A800750FF90700000800C4
:0E00B000213083120313FD00FD0B5C280800B5
:0600BE0000000000080034
:1000C400023083120313FC004930FD00FD0B682845
:0A00D400FC0B682800000000080083
:1000DE00831203135108F1000130F0007108031967
:1000EE007C28F00D7010FF3E76287008D300F009C2
:1000FE0050088400700880058417700880056220FF
:10010E005308800484130D2053080005D2005208B2
:10011E00003A013003190030D20062205208F0007C
:02012E000800C7
:10013000831203135108F1000130F0007108031914
:10014000A528F00D7010FF3E9F287008D50070099B
:10015000D40050088400D301D2015208073C031C8C
:10016000D128540880058417540880055F2055085D
:1001700080045F20841355080005F0000319CD2882
:100180005208F1000130F00071080319CB28F00D7E
:100190007010FF3EC5287008D30458205820D20A9A
:0801A000AD285308F00008002F
:1001A800831203135008D60016203A30D6001620C2
:0201B80008003D
:0E01BA00831203134B088A004A0882000800D3
:1001C80083120313FB01FA01F9018030F800F10CE6
:1001D800F00C031CF8287408F90775080318750F44
:1001E800FA070318FB0A0310F01F00297408FA071E
:1001F80075080318750FFB07FB0CFA0CF90CF80CC3
:10020800031CEB287B08F3007A08F2007908F10058
:060218007808F000080068
:10021E00831203135108F1000130F0007108031925
:10022E001C29F00D7010FF3E16297008D500F0093C
:10023E007008D40050088400700880058417D3011C
:10024E005308073C031C41295308F0005208F100E3
:10025E00700803193629F10CF113FF3E30295408AA
:10026E008005711C3C29550880040D20550880041A
:0C027E00D30A27298413582058200800B8
:10028A00831203137408003A031D54297508003AAF
:10029A00031D5429FF30F0007F30F100AD2983128D
:1002AA000313FD01F901F801710870040319003400
:1002BA0071087506FA00FA1BFD09FB01F51F6A2988
:1002CA00F409F509F40A0319F50AF11F7129F0096D
:1002DA00F109F00A0319F10A71087504FA00FA1B08
:1002EA0086292C207B189929FD1F0034F009F10971
:1002FA00F00A0319F10AF809F909F80A0319F90ABF
:10030A000034F51F9529F11B91297108F90070082D
:10031A00F800F101F0017929F101F001F00A003445
:10032A00F109F009FB0A7629F80A0319F90A74088F
:10033A007802031D792975087902031D7929F901C3
:10034A00F801F00A0319F10AF11F79290000FF34B4
:02035A00080099
:10035C00831203131A08F100981CB62918121816E8
:06036C007108F00008001A
:0E0372000030831203138C1A0130F0000800D3
:10038000063083120313D0000130D1006F200630F5
:10039000D0000130D100CC30D2000F210630D00087
:1003A0000130D1004430D2000F210630D00001309E
:1003B000D10098207008003A031DDF29D5290630A6
:1003C000D0000130D1006F200630D0000130D100C4
:1003D000CC30D2000F210630D0000130D100BE3029
:1003E000D2000F210630D0000130D10098207008D3
:1003F000C800C9010630D0000130D1009820700833
:10040000F500F40174084804F20049087504F3008B
:100410007208C8007308C900F31F182A2008840056
:100420002D308000C809C909C80A0319C90A3C2A25
:100430000430F0004808F1004908F2007008031980
:10044000282AF20CF10CF213721BF217FF3E1F2A3E
:1004500080307206F00080307002031D312A643053
:100460007102031C382A20088400313080003C2AA5
:100470002008840020308000200ACF000430F200E1
:100480004808F0004908F100720803194E2AF10CDF
:10049000F00CF113711BF117FF3E452A0A30F400EE
:1004A0000030F50045210A30F4000030F500452108
:1004B0007808F0007908F1003030F0074F08840028
:1004C0007008800002302007CF000430F200480896
:1004D000F0004908F10072080319752AF10CF00CBC
:1004E000F113711BF117FF3E6C2A0A30F400003043
:1004F000F50045217808F0007908F1003030F00768
:100500004F0884007008800004302007CF000F30AF
:100510004805F0004908F1000030F1057130F400A1
:100520000230F500E420E830F4000330F500452106
:100530003030F0074F088400700880000530200735
:10054000CF000F304805F0004908F1000030F105F8
:100550007130F4000230F500E4206430F400003023
:10056000F50045210A30F4000030F50045217808F7
:10057000F0007908F1003030F0074F08840070086F
:10058000800006302007CF000F304805F0004908F2
:10059000F1000030F1057130F4000230F500E42084
:1005A0000A30F4000030F50045210A30F400003034
:1005B000F50045217808F0007908F1003030F007A7
:1005C0004F0884007008800007302007CF000F30EC
:1005D0004805F0004908F1000030F1057130F400E1
:1005E0000230F500E4200A30F4000030F500452127
:1005F0007808F0007908F1003030F0074F088400E7
:0C060000700880002008D000D420080002
:10060C00831603139816903083129800831687175D
:10061C00071383128C1E152B1A08F0000F2B0800E1
:10062C00DD208A110A128000840ACA0A0319CB0A37
:08063C00F003031D162B08005A
:10064400BE23333083160313990018150623B921EA
:1006540070080319302BAE217008B9003908743AB8
:10066400031D6D2B2108753A03193D2B21086C3AA3
:1006740003193D2B6B2BCD01CE0180304E06F000CB
:1006840080307002031D482B05304D020318682B7F
:100694002108753A031D512B2230CC00532B2E30E8
:1006A400CC004C08D000D4200B30FB002630FC00DA
:1006B4005D30FD00FD0B5C2BFC0B5C2BFB0B5C2B02
:1006C40000000000CD0A0319CE0A3F2B6230A100BE
:1006D4006C2BC021802B3908753A031D762B75309D
:1006E400A1007430B900802B39086C3A031D7F2BAC
:1006F4006C30A1007430B900802BC0210B30FB009A
:100704002630FC005D30FD00FD0B862BFC0B862B98
:0C071400FB0B862B00000000292B8F2B14
:10077C0020308400283083120313F0009530CA0017
:08078C000330CB001623080026
:02072A003D345C
:02072C00613436
:10072E0020343134323437342E34303430343034A3
:08073E00303420344334003450
:100746002D34313432342E34303430343034303485
:060756002034433400349E
:02075C00613406
:06075E000D340A340034E2
:100764003034303430342E34303430343034303467
:0607740020344334003480
:02400E007A3BFB
:00000001FF
