:02000000182ABC
:100006000F3083120313FC004730FD00FD0B092857
:0A001600FC0B0928000000000800A0
:0E002000213083120313FD00FD0B142808008D
:06002E00000000000800C4
:1000340083160313E51B21288312861223288312B7
:1000440086168316651B2928831206122B28831211
:1000540006168316E51A3128831286113328831273
:1000640086158316651A3928831206113B288312D4
:10007400061565183F280614402806108614172014
:1000840086108316E5194928831286124B28831299
:100094008616831665195128831206125328831273
:1000A40006168316E5185928831286115B288312D5
:1000B4008615831665186128831206116328831236
:1000C4000615651867280614682806108614172074
:0E00D4008610651C6F2803207028102008007D
:1000E20083120313651083166408E5001A20651451
:0200F200080004
:1000F400831603139818802800007A286408831252
:040104009900080056
:10010800831603136008F2006208F0006308F10028
:100118000130E202031CE3037008710403199A28F2
:100128007208840061088000F20A88286008F000DC
:020138000800BD
:10013A0083160313E10183126F08840000088316F3
:10014A00E0006008003A0319B7286008E4007A2042
:10015A008316E10A610883126F0784000008831678
:06016A00E000A6280800D9
:10017000CA28803083160313E000DD28C030E00079
:10018000DD289430E000DD28D430E000DD28803028
:10019000E000DD28831603136008013A0319B9282B
:1001A0006008023A0319BE286008033A0319C128FF
:1001B0006008043A0319C428C7286103F0006008E6
:1001C000F0077008E0007008E5001A206510EF01E4
:1001D0006F0883166207840000080319F928831248
:1001E0006F088316620784000008E4007120EF0A9C
:0801F000E828831265140800E1
:1001F800013083160313E5001A2001308316E0004E
:100208000130E10083126E088316E200B82008006E
:10021800831203136E08840080016E088316E000C1
:10022800E1014030E2000030E30084208312A001A5
:04023800A101080018
:10023C00831203136E08EF009D2022308312EF000F
:04024C009D200800E9
:10025000013083120313EA000030EB00EC01ED01E2
:1002600080306B06F000803021067002031D3A29B1
:1002700020086A0203184F296C08253EF1006A081D
:10028000A03E84000008F00071088400700880001F
:10029000EA0A0319EB0AEC0A0319ED0A302983165E
:1002A0002008733A031D592925308312EE00FC20E3
:1002B000752983162008683A031D68290130E50076
:1002C0001A20A030EE000C212530EE000C217529FB
:1002D00083162008723A031D752925308312EE001B
:0C02E0001E2125308312EE00FC200800D7
:1002EC00831203131A08F100981C7E291812181691
:0602FC007108F00008008B
:0E0302000030831203138C1A0130F000080043
:0E0310008312031367088A0066088200080043
:10031E00812170080319AD296808E900762170085B
:10032E00E8007008233A0319AC296908233A031D23
:10033E00A329A030EE000C212008A03E84006808FE
:0E034E008000A00A0319A10AAD292821080089
:10035C0083160313861006100611861106128612D8
:10036C0083128610061086120612861106110320BF
:10037C0003200320861506158614172086100320EB
:10038C00861417208610032086141720861003204D
:10039C000611861417208610032086141720861049
:1003AC0086118616861417208610032086120615D1
:1003BC008614172086100611861417208610032029
:1003CC008614172086100615861417208610032015
:1003DC000611861417208610861606168615061525
:0C03EC00861417208610032065140800FA
:1003F80088218A110A128000840AE60A0319E70A8A
:08040800F003031DFC290800AC
:10041000831603139816903083129800831687175B
:10042000071383128C1E172A1A08F000112A0800DD
:1004300083120313A001A1010D30A2000A30A30012
:10044000A40133308316990018150822AE210C3010
:0C0450008316E5001A208F212B2A2D2A8C
:02400E007A3BFB
:00000001FF
