:02000000A32A31
:10000600831603139818092800000328831255083D
:040016009900080045
:10001A00831203132230FC00F801F901FA01FB01F3
:10002A00FC03031943280310FB0CFA0CF90CF80C17
:10003A00F30CF20CF10CF00C031C1528FC03031949
:10004A0035287408F80775080318750FF907760834
:10005A000318760FFA0777080318770FFB07192892
:10006A007408F80775080318750FF9077608031856
:0E007A00760FFA0777080318770FFB070800C8
:10008800710DF80DF90D7408F8027508031C750F49
:10009800F902F00DF10D0F30FC00710DF80DF90D9E
:1000A8007408701C5D28F8027508031C750FF902A6
:1000B8006228F80775080318750FF907F00DF10D98
:1000C800FC0B512870186E287408F8077508031877
:0800D800750FF9070000080094
:1000E000D03083120313D1000730D200D301D401E2
:1000F000D030F0000730F1000030F2000030F300A3
:100100004F08F4005008F500F601F7010D207008C3
:10011000D1007108D2007208D3007308D4000030F7
:100120007302031D9D2800307202031D9D280230BA
:100130007102031D9D28B23070020318A028DF2829
:10014000B230F0000230F100F201F3017008D10288
:100150007108031C710FD2027208031C720FD302C4
:100160007308031C730FD4020530F00070080319E4
:10017000C028D40CD30CD20CD10CD413FF3EB7281A
:100180005108F0005208F1005308F2005408F3003F
:100190000130D102031CD202031CD302031CD4027F
:1001A00070087104720473040319DF280000000052
:1001B000000000000000000000000000C02808004F
:1001C00083120313D1014F0884000008D0005008A7
:1001D000003A0319F5285008D5000320D10A510828
:0C01E0004F0784000008D000E72808004A
:1001EC00831203137408003A031D05297508003A9D
:1001FC00031D0529FF30F0007F30F1005E298312CA
:10020C000313FD01F901F80171087004031900349E
:10021C0071087506FA00FA1BFD09FB01F51F1B2975
:10022C00F409F509F40A0319F50AF11F2229F0095A
:10023C00F109F00A0319F10A71087504FA00FA1BA6
:10024C00372944207B184A29FD1F0034F009F10995
:10025C00F00A0319F10AF809F909F80A0319F90A5D
:10026C000034F51F4629F11B42297108F90070086A
:10027C00F800F101F0012A29F101F001F00A003433
:10028C00F109F009FB0A2729F80A0319F90A74087D
:10029C007802031D2A2975087902031D2A29F90100
:1002AC00F801F00A0319F10AF11F2A290000FF34A2
:0202BC00080038
:1002BE008030831203135006F00080307002031D4D
:1002CE006A2900304F02031875294F08003CF000D0
:1002DE005008031C013EF101F10279294F08F0008C
:0602EE005008F1000800B9
:0E02F4008312031345088A00440882000800A4
:1003020083120313F801F9011030FC00710DF80D8E
:10031200F90D7408F8027508031C750FF902031829
:1003220099297408F80775080318750FF90703105F
:0A033200F00DF10DFC0B8729080007
:10033C00831203134808CF00E0203630CF00E020B2
:02034C000800A7
:10034E00831203134808CF004908D0005F217008BC
:10035E00CC007108CD008030F0008030490670026C
:10036E00031DBB294808003C0318BE294E148030DB
:10037E004906F00080307002031DC7290030480284
:10038E000318CA294E108030F00080304D067002DE
:10039E00031DD3294C08003C0318412A4008CF0006
:1003AE004108D00070204E1CEA29CA0A0319CB0A54
:1003BE004B083F06031DE5293E084A06031DE929A1
:1003CE00CA01CB01FA2900304B06031DF02900307B
:1003DE004A06031DF6293E08CA003F08CB0001302D
:1003EE00CA02031CCB030130CC02031CCD03043024
:1003FE00F4000030F5004A08F0004B08F100F6203A
:10040E007808F0007908F100202A061486100615E7
:10041E008611402A0610861406158611402A0610EB
:10042E00861406118615402A0614861006118615A6
:10043E00402A00307106031D262A0030700603196B
:10044E000C2A00307106031D2E2A01307006031986
:10045E00112A00307106031D362A02307006031968
:10046E00162A00307106031D3E2A0330700603194A
:06047E001B2ACA29080038
:10048400831203131A08F100981C4A2A181218162A
:060494007108F0000800F1
:0E049A000030831203138C1A0130F0000800AA
:1004A8007A218A110A128000840AC40A0319C50A2B
:0804B800F003031D542A0800A3
:1004C0008316031306108610061186118312061078
:1004D0008610061186114808BE004908BF000800B2
:1004E0000030831203134902031D782A01304802A9
:1004F00003187E2A0130C8000030C9003E08F4000D
:100500003F08F5006030F000EA30F1008121480832
:10051000F4004908F50081217008C0007108C1008D
:06052000C201C301080046
:100526008316031398169030831298008316871744
:10053600071383128C1EA22A1A08F0009C2A0800B0
:1005460083120313A001A1014F30A2007030A30053
:100556006530A4006E30A5006530A6006430A700A3
:10056600A8014330A9006C30AA006F30AB0073308D
:10057600AC006530AD006430AE00AF014330B00072
:100586006C30B1006F30B2007330B3006530B40028
:10059600B5010D30B6000A30B700B8014F30B900CA
:1005A6007030BA006530BB006E30BC00BD01333020
:1005B6008316990018159322073083169F0083121D
:1005C600C801C90160223230C8000030C90070225B
:1005D6004D22700803192A2B42227008C7007008A2
:1005E600743A031D162B00302106031DFC2A003029
:1005F6002006031D0B2B0230C8000030C900A721BE
:100606002230C8009E210130A0000030A100152B29
:10061600FE30C800FF30C900A7212930C8009E213E
:10062600A001A1012A2B4708723A031D2A2B00308C
:100636002106031D202B00302006031D252B3030FC
:10064600C600272B3930C6004608C8009E21EB2A73
:020656002B2B4C
:02400E007A3BFB
:00000001FF
